:020000040800F2
:100000007811012085020008B146000891350008EA
:10001000254600082D130008716400080000000048
:10002000000000000000000000000000C501000802
:10003000811600080000000021020008D95B0008BA
:10004000BF020008BF020008BF020008BF0200088C
:10005000BF020008BF020008BF020008BF0200087C
:10006000BF020008BF020008BF020008BF0200086C
:10007000BF020008BF020008BF020008BF0200085C
:10008000BF020008BF020008BF020008BF0200084C
:10009000BF020008BF020008BF020008BF0200083C
:1000A000BF020008BF020008BF020008BF0200082C
:1000B000BF020008C15C0008BF020008BF020008C0
:1000C000BF020008BF020008BF020008BF0200080C
:1000D000BF02000825630008BF020008BF02000835
:1000E000BF020008BF020008BF020008BF020008EC
:1000F000BF020008BF020008BF020008191600086E
:10010000BF020008BF020008BF020008BF020008CB
:10011000BF020008BF020008BF020008BF020008BB
:10012000BF020008BF020008BF020008BF020008AB
:10013000BF020008BF020008BF020008BF0200089B
:10014000BF020008BF020008BF020008BF0200088B
:1001500025160008BF020008BF020008BF02000801
:10016000BF020008BF020008BF020008BF0200086B
:10017000BF020008BF020008BF0200080000000024
:10018000BF020008BF020008BF020008BF0200084B
:10019000BF020008BF020008BF020008BF0200083B
:1001A000BF020008BF020008BF020008DFF810D03D
:1001B00000F0D2FB0048004721860008AFF3008022
:1001C000781101202C4B19680868B0E8F04F80F3D3
:1001D0000988BFF36F8F4FF0000080F311887047DC
:1001E0000000000008480068006880F308884FF0AD
:1001F000000080F3148862B661B6BFF34F8FBFF37F
:100200006F8F00DF00BF00BF08ED00E0DFF80C00DB
:10021000016841F470010160704700BF88ED00E0A3
:10022000EFF30980BFF36F8F134B1A681EF0100FA6
:1002300008BF20ED108A20E9F04F106009B44FF09C
:10024000500080F31188BFF34F8FBFF36F8F09F019
:1002500011F94FF0000080F3118809BC1968086893
:10026000B0E8F04F1EF0100F08BFB0EC108A80F31A
:100270000988BFF36F8F7047CC030020EFF3058030
:10028000704700000E488047DFF83800016841F4ED
:1002900070010160BFF34F8FDFF82C00016821F07F
:1002A00040410160BFF36F8F08480047FEE7FEE75B
:1002B000FEE7FEE7FEE7FEE7FEE7FEE7FEE7FEE716
:1002C000ED5B000888ED00E034EF00E0AD010008D0
:1002D00040EA01039B0703D009E008C9121F08C0C8
:1002E000042AFAD203E011F8013B00F8013B521E48
:1002F000F9D27047D2B201E000F8012B491EFBD2BF
:1003000070470022F6E710B513460A460446194620
:10031000FFF7F0FF204610BD2DE9FE4F804681EA31
:100320000300C00F0C46009021F0004123F000456F
:10033000B8EB0200A94105D24046214690461C4632
:100340000B46024623F00040104347D0270DC7F369
:100350000A00C3F30A510290401A019040286BDA58
:10036000C3F3130040F4801B0098924620B1002391
:10037000D2EB030A63EB0B0B01985946C0F1400224
:10038000504600F0F4F906460D4650465946019A8B
:1003900000F00CFA10EB08006141002487EA1152CA
:1003A00084EAE7731A4340D0009A62B3019A012AA3
:1003B0004FEA075215DC001B61EB02014FF00042CF
:1003C00002EA0752CDE90042001C41F58011324695
:1003D0002B4600F043FA03B0BDE8F08F40462146BB
:1003E000F9E7001B61EB0201001C41F580130018C6
:1003F0005B412018A2F5001747EB030140EAD570D6
:10040000B6196D4111E06D084FEA360645EAC07530
:100410004FEA0752001B61EB0201001C41F58011FD
:1004200049084FEA30000019514132462B4603B0CB
:10043000BDE8F04F00F003BA00980122400000230D
:10044000D0EB020263EBE073009821464FEAE074C0
:10045000B8EB000061EB0401E9E783F000435BE7E0
:1004600081F0004158E72DE9FE4F81EA030404F0D2
:10047000004421F0004100944FF0000B23F00043B2
:1004800050EA01045ED052EA03045BD0C3F30A547D
:10049000C1F30A552C44A4F2F3340194A0FB025496
:1004A000C1F3130141F48011C3F3130343F4801328
:1004B00001FB024400FB034E840A970A44EA81547C
:1004C00047EA8357A4FB076802958D0A05FB078559
:1004D0004FEA932C04FB0C542705029D4FEA065863
:1004E00047EA1637B5EB08056EEB070C870E920E40
:1004F00047EA811742EA8312A7FB0201B6EB0B0120
:1005000064EB00042B0D43EA0C335E1844EB1C50E3
:10051000DA465146E7FB0201C5F313044FEA0B33F9
:1005200043EA14534FEA0432019C43EA0603A4F160
:100530000C040294009CCDE900B400F08FF903B0E4
:10054000BDE8F08F00200146F9E72DE9F04D81EA82
:10055000030404F0004B21F0004514464FF0000A5C
:1005600023F0004150EA050220D054EA01021DD0D8
:10057000C5F30A570246C5F31303C1F31300C1F3D1
:100580000A5640F4801543F48013A7EB0608101BAD
:10059000D64608F2FD3873EB050002D308F10108D6
:1005A00001E092185B41B8F1000F03DA0020014628
:1005B000BDE8F08D00204FF48011064684460EE021
:1005C000171B73EB050705D3121B63EB05030643EB
:1005D0004CEA010C49084FEA300092185B4150EA9E
:1005E0000107EDD152EA030012D082EA040083EA47
:1005F0000501084305D0101BAB4106D201220023A0
:1006000006E000224FF0004302E06FF001025310B9
:100610001AEB06004CEB085110EB0A0041EB0B0102
:10062000BDE8F04D00F00BB90EB5C10F80EAE070E7
:100630000844CA07002140F233438DE80E000A4601
:100640000B4600F00BF903B000BD0EB540F233418C
:1006500002910021CDE900110A460B4600F0FEF898
:1006600003B000BD70B5C1F30A5201F0004500248B
:10067000C1F3130140F2FF3341F480119A4201DAD1
:10068000002070BD40F233439A42A2F2334203DCB1
:10069000524200F07BF800E090402C43F1D0404201
:1006A00070BD000030B5041E71F1000404DB4FF092
:1006B0000044404264EB0101141E73F1000405DBA9
:1006C0001C464FF00043524263EB04038B4208BFC9
:1006D000824230BD01F0004330B421F0004150EAC5
:1006E000010206D00A0DA2F56072C1F31301002ABF
:1006F00002DC30BC00207047440F44EAC104C10052
:10070000E01830BC00EBC25000F062B82DE9F05F99
:100710000546002092469B46884606468146402470
:100720001BE0284641464746224600F02FF8534634
:100730005A46C01A914110D311461846224600F07D
:1007400016F82D1A67EB01084F46224601200021BA
:1007500000F00DF817EB00094E41201EA4F1010432
:10076000DFDC484631462A464346BDE8F09F202A52
:1007700004DB203A00FA02F1002070479140C2F1F8
:10078000200320FA03F3194390407047202A04DB2A
:10079000203A21FA02F00021704721FA02F3D040FA
:1007A000C2F120029140084319467047202A06DB17
:1007B000CB17203A41FA02F043EAE07306E041FA2F
:1007C00002F3D040C2F1200291400843194670471D
:1007D0000029A8BF7047401C490008BF20F0010055
:1007E000704710B4B0FA80FC00FA0CF050EA010433
:1007F00004BF10BC704749B1CCF1200421FA04F4C5
:1008000011FA0CF118BF012121430843A3EB0C019D
:10081000CB1D4FEA00614FEA102042BF002010BC00
:10082000704700EBC35010440029A4BF10BC7047B0
:10083000401C490008BF20F0010010BC704710B5F3
:10084000141E73F1000408DA401C41F100019218F3
:100850005B411A4301D120F0010010BD2DE9F04D9C
:1008600092469B4611B1B1FA81F202E0B0FA80F2F1
:1008700020329046FFF77BFF04460F4640EA0A000D
:1008800041EA0B0153465A46084313D0114653EA36
:10089000010019D0C8F140025046FFF777FF054626
:1008A0000E46504659464246FFF761FF084305D0C1
:1008B000012004E020463946BDE8F08D00200543C4
:1008C00046EAE0762C4337430A986305E40AA0EB36
:1008D00008000022FD0A44EA47540A3002D50020ED
:1008E0000146E9E7010510196941DDE908450019EC
:1008F0006941BDE8F04DA2E770B521F00043034324
:100900000CD0C1F30A550024D5EB040564EB0403B5
:10091000D617AD1AB34102DB0020014670BD201886
:1009200041EB025170BD000030B5041E71F10004AE
:1009300004DB4FF00044404264EB0101141E73F1EC
:10094000000405DB1C464FF00043524263EB0403F6
:10095000994208BF904230BD064C074D06E0E06862
:1009600040F0010394E8070098471034AC42F6D3F6
:10097000FFF720FC50A0000870A000082DE9F04D02
:1009800000231A461B1A8A4103DB00200146BDE8FA
:10099000F08DC1F30A52C1F3130141F480154FF0F9
:1009A000000BD10702D100186D41521E00270446EA
:1009B00040F2FF11384601EB620A3E46804602468D
:1009C00000204FF48011FFF7E1FEC2197141BB18FE
:1009D00046EB0100B4EB030C75EB000C04D3E41AF6
:1009E00065EB000517460E46241908F101006D411C
:1009F00080463428E3DDF91946EB0600091BA841BF
:100A000003D24FF0FF32134601E0002213461BEBE6
:100A1000070046EB0A51BDE8F04DFFF710BF70B577
:100A20008C1810F8015B15F0070301D110F8013B99
:100A30002A1106D110F8012B03E010F8016B01F820
:100A4000016B5B1EF9D12B0705D40023521E0DD478
:100A500001F8013BFAE710F8013BCB1A921C03E0C6
:100A600013F8015B01F8015B521EF9D5A142D8D3FE
:100A7000002070BD2DE9F041234F00242DED028BA5
:100A800026463878F0EE608AB0EE418A3546F0B1FD
:100A90001E4800F07BF81D4810EE106AB0EE680AA0
:100AA000203000F073F8194810EE104AB0EE480AF2
:100AB000403000F06BF810EE105ABDEC028B00EEE7
:100AC000106A00EE904A01EE105ABDE8F0819FEDE9
:100AD000108AF3EE040A0D48B0EE480A04F08EFFC7
:100AE0000A48F3EE040AB0EE480A203004F086FF0C
:100AF0000648F3EE040AB0EE480A403004F07EFFE8
:100B000001203870D9E700000000002058040020C0
:100B10000000FA4370B51B4B0C4614225978491C4F
:100B2000C9B2B1FBF2F502FB151217495A7090EDEC
:100B3000000A01EB820181ED000A134990ED010AE0
:100B4000503101EB820181ED000A90ED020A0E485E
:100B50001421A03000EB820080ED000A0A4803F067
:100B600045FD094884ED000A1421503003F03EFD94
:100B7000054884ED010A1421A03003F037FD84ED0F
:100B8000020A70BD94020020A006002090ED061A13
:100B9000D0ED011AF0EE400A90ED022A41EE610A12
:100BA000D0ED071A41EEC20A10EE901A21F0004172
:100BB000C1F1FF41C90F06D110EE901A4FF07F42EC
:100BC000B2EB410F01D1F0EE400A90ED040A90ED36
:100BD000032A21EE000A00EE820A90ED052A80ED3C
:100BE000071AC0ED060A01EE820A70472DED028B4E
:100BF000A2B09FED2E8A002408F086FF05252C4E1A
:100C00000DF120090DF1240864272090022120A86D
:100C100008F066FB0EA800F065FF18220EA914A8C4
:100C2000FFF756FB14AB93E8070005AB83E807001A
:100C30000EA800F057FF18220EA914A8FFF748FBD2
:100C400017AB93E8070008AB83E80700484600F0BD
:100C500015FEB4FBF5F005FB104068B90EA800F0D6
:100C600047FF24220EA917A8FFF732FB1DAB93E81C
:100C700007000BAB83E80700142241466846FFF7E4
:100C800027FB0DF1140CB0EE480A9CE80F0003F0AE
:100C9000A5F93078012801D000F03CFF641CE0B2D7
:100CA000B0FBF7F107FB1104B0E700006F12033B44
:100CB000B40500200FB52DED020B85B0684600F09D
:100CC00063FE1F489DED080A80ED010A9DED010AB3
:100CD00080ED020A03F0B2FE19489DED090A1430B6
:100CE00080ED010A9DED020A80ED020A03F0A6FEE6
:100CF00013489DED0A0A2830124A80ED010ADDED05
:100D0000030ADFED111AC0ED020A30EE601A11EE8F
:100D1000101A914204DD30EE610A80ED010A08E00C
:100D200011EE101A094A914203D930EEE10A80ED22
:100D3000020A0348283003F081FE0BB000BD00001A
:100D400064030020000034430000B443000034C3B7
:100D500070B504462DED0A8B0D469FED82BB9FEDCD
:100D600083CB8069FFF760FC9FED821B53EC112B56
:100D7000FFF779FB9FED811B53EC112BFFF76DFB08
:100D800041EC180BB4F91000FFF74EFC41EC190BC5
:100D900053EC182B51EC180BFFF765FB53EC192B98
:100DA000FFF761FB53EC1B2BFFF75DFB41EC190BCD
:100DB000B4F90E00FFF738FC53EC182BFFF753FB88
:100DC0009FED701B53EC112BFFF74DFB53EC192BD0
:100DD000FFF7A2FA41EC1A0BB4F90C00FFF724FC60
:100DE0009FED6A1B53EC112BFFF73DFB41EC190BF8
:100DF0009FED680B51EC1A0B53EC102BFFF733FBF4
:100E000053EC192BFFF788FA41EC190BB4F90800E1
:100E1000FFF70AFC53EC182BFFF725FB41EC1A0BEC
:100E2000B4F90A00FFF700FC53EC182BFFF71BFB8B
:100E300053EC182BFFF717FB9FED588B53EC182B37
:100E4000FFF711FB53EC1A2BFFF766FA53EC182B44
:100E5000FFF709FB41EC1A0BE088FFF7F6FB41ECCA
:100E6000180B53EC1B2B51EC1A0BFFF7FCFA9FED00
:100E70004D1B53EC112BFFF74FFA53EC182BFFF7D8
:100E8000F2FA41EC180B53EC1C2BFFF70BFC06D1CC
:100E9000B0EE4C0AF0EE6C0ABDEC0A8B70BD284631
:100EA000FFF7C2FB9FED411B53EC112BFFF7D8FA64
:100EB00041EC1A0B9FED3F0B51EC190B53EC102B2F
:100EC000FFF7D1FA53EC1A2BFFF7CAFA9FED3B1B41
:100ED00053EC112BFFF7C7FA53EC182BFFF735FB38
:100EE00041EC180BB4F91600FFF79EFB53EC182BDE
:100EF000FFF7B9FA53EC182BFFF7B5FA9FED311B4A
:100F000053EC112BFFF7AFFA41EC190BB4F91400B5
:100F1000FFF78AFB53EC182BFFF7A5FA53EC1B2BBA
:100F2000FFF7A1FA41EC1B0BB4F91200FFF77CFBB1
:100F300041EC1A0B53EC1B2B51EC190BFFF7ECF99E
:100F400053EC1A2BFFF7E8F99FED201B53EC112B04
:100F5000FFF789FA53EC182BFFF7DEF941EC100B81
:100F60009AE70000000000000000003F00000000C1
:100F700000000000000000000000E03F0000000052
:100F80000040EF40000000000000004000000000B2
:100F90000000F040000000000000D03F0000000012
:100FA0000000C03E000000000000F03F0000000014
:100FB00000003041000000000000303F0000000051
:100FC000006AB840000000000000003E0000000081
:100FD0000000B03F2DE9F04104462DED0A8B0D468F
:100FE000B0F90200FFF720FB41EC180B2088FFF757
:100FF0002CFB884648EC100B06469FED421B51EC3B
:10100000100B53EC112BFFF72EFA41EC190B28466D
:10101000FFF70AFB0F4647EC100B9FED3C1B054604
:1010200053EC112B51EC100BFFF71DFA53EC192B5D
:10103000FFF713FA53EC182BFFF715FA41EC190BD5
:10104000B4F90400FFF7F0FA48EC106B9FED31BBE8
:1010500041EC180B53EC1B2B51EC100BFFF703FA70
:1010600047EC105B9FED2DCB41EC1A0B53EC1C2B86
:1010700051EC100BFFF7F7F953EC1A2BFFF7EDF9D2
:1010800048EC106B41EC1A0B53EC1B2B51EC100B82
:10109000FFF7E9F947EC105B41EC1B0B53EC1C2B01
:1010A00051EC100BFFF7DFF953EC1B2BFFF7D5F9D1
:1010B00053EC1A2BFFF7D7F953EC182BFFF7D3F9A2
:1010C00041EC100B51EC190B53EC102BFFF724F9EA
:1010D0000E4646EC100B054651EC100BFFF7C2FA1A
:1010E00046EC105B9FED0F1BA06153EC112B51ECF4
:1010F000100BFFF72AFABDEC0A8B41EC100BBDE890
:10110000F0810000000000000000503F00000000DF
:101110000000103F000000000000203F0000000021
:101120000000E03E000000000000B44030B504467E
:1011300089B0D02000F0E6F8014658287DD061A0A3
:1011400005F05AFA882000F0DDF80546892000F005
:10115000D9F845EA0020ADF800008A2000F0D2F866
:1011600005468B2000F0CEF845EA0020ADF80200DD
:101170008C2000F0C7F805468D2000F0C3F845EA42
:101180000020ADF804008E2000F0BCF805468F204A
:1011900000F0B8F845EA0020ADF80600902000F015
:1011A000B1F80546912000F0ADF845EA0020ADF811
:1011B0000800922000F0A6F80546932000F0A2F85F
:1011C00045EA0020ADF80A00942000F09BF805469F
:1011D000952000F097F845EA0020ADF80C00962025
:1011E00000F090F80546972000F08CF845EA0020C2
:1011F000ADF80E00982000F085F80546992000F023
:1012000081F845EA0020ADF810009A2000F07AF845
:1012100005469B2000F076F845EA0020ADF8120064
:101220009C2000F06FF805469D2000F06BF845EA21
:101230000020ADF814009E2000E034E000F062F8D9
:1012400005469F2000F05EF845EA0020ADF8160044
:10125000B621E02000F065F89DF81E009DF81F10F3
:10126000400140EA81009DF81D109DF820200843B0
:10127000C1B29DF81C00400140EA8200C5B2F420D2
:1012800000F04FF82946F52000F04BF80A2000F056
:1012900015FA16A005F0B0F9242269462046FFF79A
:1012A00017F809B030BD00208DF81D0001208DF821
:1012B0001C0002208DF81F008DF81E008DF8200004
:1012C00040E70000424D50323830204944206572DA
:1012D000726F722C2063757272656E74206964205F
:1012E0003D20307825580D0A00000000424D503254
:1012F000383020496E697420737563636573730DAC
:101300000A0000000146EC2002F0A8B94177827F74
:10131000C07F520142EA80000843C1B2F420AFF31B
:1013200000800A460146EC2002F0B2BAFEE7000057
:101330002DED068B88B003F02BFCDFED9CAA002579
:101340004FF47A74B0EE6A9AF0EE499A05E02046BE
:1013500007F0A0FF96A005F04FF9684600F0ACFC3E
:101360000099C8B20128F2D1684600F0A5FCDDF86A
:101370000C8008F0C9FB9D4F0590012105A807F0DE
:10138000AFFFBDB1012D4AD0022DF6D100F09CFC7B
:10139000E8B303F0FDFB044600F0B0FB814603F028
:1013A000E3FB064638880321B0FBF1F201FB120093
:1013B00070B395E004F08EFB8C498D480C3104F03D
:1013C000AFF88A498A4828313C3004F0A9F88749A7
:1013D00087484431783004F0A3F884498448603168
:1013E000B43004F09DF88248C0ED09AA3C30C0ED4D
:1013F00009AA3C30C0ED09AA3C30C0ED09AA6846F4
:1014000000F05AFC0098C0B20128B6D101E00AE011
:101410000BE000F059FC0128AFD10125ADE704F045
:1014200099F90225A9E70025A7E7DFF8C0A10AF18D
:10143000900A9AED010A9FED6F8A20EE080A05F0E6
:1014400003FB0AF1140BF0EE408A9BED010A20EE3B
:10145000080A05F0F9FAB0EE40AA28EE8A0A06F06A
:1014600097FA94ED021ADBED030AB0EE408AF0EE33
:10147000C11A11EE900A60EEA80A5F499AED030ABC
:10148000884207DA0AF128002AEE281AD0ED031A5A
:1014900021EE211ADFED591A03F042FE5448584953
:1014A0003C3090ED0C0A3C30D0ED0C0A3C3090ED15
:1014B0000C1A18EE100A884201DA9FED528AB9F12F
:1014C000000F09D04A48D0ED0C1A9FED4F2A32EE9A
:1014D000612AC2EE081A01E0D4ED031A03F0A4F861
:1014E00038880521B0FBF1F201FB1200B8B994ED88
:1014F000020AD4E90012B0EEC00A10EE100A434B03
:10150000984202DACDF8108003E03848B830D0F8BD
:1015100008809FED3F0A049B0698FFF7CBFB3988B4
:101520004FF00A00B1FBF0F200FB1210B9F1000F0E
:1015300030D070B9DFF8B8909FED360A89ED0A9A7D
:1015400089ED0E0A00F0E0FA89ED0B1A484603F027
:1015500089FA38881421B0FBF1F201FB1200D8B9E6
:1015600094ED069AB0EEC90A10EE100AB0F17C5F55
:101570000DDA1E4C7C342046C4ED019A96ED020A29
:1015800084ED020A03F05AFA94ED039A04E0D6EDD2
:10159000029A01E00028FAD03888401C80B2642109
:1015A000B0FBF1F201FB12003880E6E6000000001B
:1015B00043616E6E6F742047657420496E6974696B
:1015C000616C2041747469747564652C20636F6E5E
:1015D00074726F6C206174746974756465206973CA
:1015E0002072656A65637465640D0A00D402002088
:1015F000CC07002035FA8E3C0000F041A69B443B0E
:101600002DB25D3F2DB25D3F0000B442000010429C
:101610000AD7A33B0AD7233C014800F0C7BC00000F
:101620001C0B0020014800F0C1BC00009409002000
:1016300001681823CAB2103AB2FBF3F2054B6FF3FC
:101640000901032A9B5C436500D9091D0165084611
:1016500070470000959F000830B50468256825F4A0
:1016600080252560046863608368402B036803D08D
:1016700099600068C26030BD9A600068C16030BD8A
:101680007047000010B50446042001F008FC0A4829
:101690004FF47A7114FB01F10122446002804FF093
:1016A000E020026942F0020202614161016941F0F9
:1016B0000101016110BD0000AC03002070B50446BB
:1016C00008F014FA01280CD0094D2888844203D36D
:1016D000B4FBF0F007F0DEFD2888B4FBF0F100FB6E
:1016E00011444FF47A706043BDE8704000F002B8D6
:1016F000AC03002070B54FF0E02500216C69094A69
:10170000AB6952685043AA699A42FCD002D2A3EB5B
:10171000020302E0A4EB020633441944134681425B
:10172000F1D370BDAC03002008B5002401F052FFD6
:1017300002F094FE04F020FF4E4804F02DF808F06B
:10174000E3F94C4FDFF8308107F1800508F10C090F
:101750004FF0140A05F180064FF0050B00900221AE
:10176000684607F0BDFD00F0B5FA05F14C0105F142
:10177000740081EC030AD8ED001A30EE610AD9ED4D
:10178000001A21EEC00AD8ED011A70EEE10AD9ED77
:10179000011A60EEA10AD8ED021A31EE611AD9EDF4
:1017A000021A21EE211A80EC030AFFF763F906F111
:1017B000180080EC030A00F0D1FA05F1580080EC23
:1017C000030AD7ED001A30EE610AD7ED011A71EE67
:1017D000E00AD7ED021A31EEC11A86EC030A00F0D6
:1017E0003DFB06F1240181EC030AB4FBFAF10AFB8C
:1017F000114001282BD100F0F5FA05F16400F0EE5C
:10180000401A80EC030AB0EE600A1B48F0EE410A71
:10181000183000F10C0190ED011A90ED002A30EE25
:10182000411A91ED010A71EEC21A21EE001A20EE62
:10183000610AD0ED021A70EEE10AD1ED021A86EDCE
:10184000031A86ED040A60EEA10AC6ED050AB4FB90
:10185000FBF10BFB114028B900F09EF80548CC3095
:1018600080ED090A641CE0B26421B0FBF1F201FBD7
:10187000120474E74C04002004000020D0ED000A9C
:101880009FED090A60EE800AC0ED000AD0ED010A62
:1018900060EE800AC0ED010AD0ED020A20EE800A57
:1018A00080ED020A7047000035FA8E3C0FB410B587
:1018B00004462DED088B86B0F6EE009A9DED120AD7
:1018C0009FED308A20EE080A20EE290AB0EE40AAE9
:1018D00005F0BAF8B0EE409A9DED130A20EE080A22
:1018E00020EE290AF0EE40AA05F0AEF8F0EE408AAC
:1018F0009DED140A20EE080A20EE290AB0EE40BA47
:1019000005F0A2F8B0EE408AB0EE4A0A05F078FF82
:10191000B0EE40AAB0EE6A0A05F072FFF0EE409A0F
:10192000B0EE4B0A05F06CFF29EE281A6AEE290A80
:1019300029EE292A684661EE081A40EE801ACDED9C
:10194000011A6AEE281A61EE882A42EE402A22EE37
:10195000082A01EE802A21EE000ACDED022A00EECF
:10196000C80A8DED032A8DED040A02F0D9FF142276
:1019700069462046FEF7ACFC06B0BDEC088B10BCF7
:101980005DF814FB35FA8E3C024910B51EC980E89B
:101990001E0010BD7C05002010B58EB09FED200B01
:1019A000214C8DED0C0B8DED0A0B207848B9684663
:1019B000FFF7BCFB242269461C48FEF789FC012086
:1019C00020700AAA0CA9194800F05DF89FED180BC9
:1019D00053EC102B9DED0A0B51EC100BFEF743FD61
:1019E0009FED151B53EC112BFEF7AFFD41EC100BD7
:1019F0009FED131B05F0DCF89FED131B51EC100B52
:101A000053EC112BFEF72CFD9FED111B53EC112B0A
:101A1000FEF729FDFEF75EFE0EB000EE100A10BDC7
:101A20000000000000000000A8030020740B00204C
:101A3000FCA9F1D24D62503FCDCCCCCCCC54594016
:101A4000D8C523A7655AC83F000000000000F03F3A
:101A50000000000040A2E54070B50546F920FFF700
:101A600051FC0446F820FFF74DFC0646F720FFF72F
:101A700049FC000340EA061040EA14112846BDE87C
:101A80007040FFF765B970B50C4615460646012152
:101A9000FFF73CFC304600F008F884ED000B3046C0
:101AA000FFF7DAFF85ED000B70BD70B50546FC2031
:101AB000FFF728FC0446FB20FFF724FC0646FA202B
:101AC000FFF720FC000340EA061040EA1411284604
:101AD000BDE87040FFF77EBA28220149FEF7F8BB47
:101AE0001805002018220149FEF7F2BB640500200A
:101AF00024220149FEF7ECBB400500200148007894
:101B000070470000D0020020014890EC030A7047A3
:101B100084060020F0B56248614987B090ED011A53
:101B20006048D1ED020AB0EEC10A10EE102A91ED24
:101B3000030A82420BDAF0EEE01A11EE901A8142AB
:101B400005DAF0EEC01A11EE901A814238DB564FDA
:101B50000A22384697F801C0007807F50476411C40
:101B6000A6F12803012403F15005C9B2BCF1000F0E
:101B700027D0322800D37C703220B1FBF0FC00FB70
:101B80001C10B0FBF2F102FB110106EB8101387071
:101B900081ED001AB0FBF2F102FB110103EB8101B0
:101BA000C1ED000AB0FBF2F102FB110105EB81016E
:101BB00081ED000A0521B0FBF1F201FB1200E0B15A
:101BC0006BE03228D7D2B0FBF2F402FB140406EB30
:101BD000840484ED001AB0FBF2F402FB140403EB5E
:101BE0008403C3ED000AB0FBF2F302FB130005EB24
:101BF000800080ED000A39704FE00A212B4803F085
:101C000099FF10EE100A2A4DA84246DA27480A2109
:101C1000283803F08FFF10EE100AA8423DDA23485F
:101C20000A21283003F086FF10EE100A214988426D
:101C300033DA322007F02EFB0A211C4802F0D6FCD2
:101C4000174D1A4838350A2185ED010A283802F067
:101C5000CDFC164885ED020A0A21283002F0C6FCA8
:101C60000F4885ED030A2C70416C3830009190E8E4
:101C70000E0001A8FFF71AFE142201A905F11000B9
:101C8000FEF726FB05F1100024350470291D03F032
:101C9000B9F92C70012007B0F0BD0020FBE700006F
:101CA0007C05002077CC2B32340000204402002039
:101CB0000AD7A33CCDCCCC3D024910B51EC980E863
:101CC0001E0010BDB4050020014840787047000098
:101CD000D002002030B500202DED028B83B09FEDA7
:101CE0001D8A009001906B4606223B21D02001F016
:101CF000CEFC70B9BDF8000040BA60F30F04BDF827
:101D0000020040BA60F31F44BDF8040040BA60F31B
:101D10000F0520B200EE100A201400EE900A28B23F
:101D200001EE900A9FED0C1AB8EEC00AF8EEE00A38
:101D3000F8EEE11A03B020EE010A60EE810A21EE0E
:101D4000811A20EE080A60EE880A21EE081ABDEC1E
:101D5000028B30BD00010038CDCC9C4230B5002450
:101D60002DED028B83B09FED1D8A25466B46062222
:101D70004321D02001F08BFC70B9BDF8000040BABF
:101D800060F30F04BDF8020040BA60F31F44BDF8D1
:101D9000040040BA60F30F0520B200EE100A2014D0
:101DA00000EE900A28B201EE900A9FED0D1AB8EEEF
:101DB000C00AF8EEE00AF8EEE11A03B020EE010ADC
:101DC00060EE810A21EE811A20EE080A60EE880A90
:101DD00021EE081ABDEC028B30BD00000001003876
:101DE0000000FA4330B500202DED028B83B09FED4B
:101DF0001A8A009001906B4606220321182001F0F8
:101E000046FC58B9BDF8000060F30F04BDF80200AD
:101E100060F31F44BDF8040060F30F0511220A218E
:101E2000182001F035FD20B200EE100A201400EE5B
:101E3000900A28B201EE100AB8EEC00AF8EEE00AE5
:101E4000B8EEC11A03B020EE080A60EE880A21EE4F
:101E5000081ABDEC028B30BD0AD7233C2DE9F041B6
:101E6000244F00242DED028B26467878F0EE608A10
:101E7000B0EE418A3546F0B11F48FEF787FE1E4896
:101E800010EE106AB0EE680A2030FEF77FFE1A48A6
:101E900010EE104AB0EE480A4030FEF777FE10EE22
:101EA000105ABDEC028B00EE106A00EE904A01EE73
:101EB000105ABDE8F0819FED118ADFED118A0E48BE
:101EC000F0EE480AB0EE680A03F098FD0A48F0EE1A
:101ED000480AB0EE680A203003F090FD0648F0EEA4
:101EE000480AB0EE680A403003F088FD012078709F
:101EF000D7E7000000000020B8040020000048429E
:101F00000000FA432DE9F04104460068016821F021
:101F10000101016000F06CFA054600264FF47A7763
:101F20000FE000F065FA401BB8420AD954F84C0F94
:101F300040F0200044F81809032026706070BDE8C6
:101F4000F08120680068C007EBD104F8346F0120ED
:101F500060700020F3E770B5040025D094F83500D8
:101F6000022821D02068016821F001010160206869
:101F70000025056020684560206885602068C56090
:101F8000206805612168212048612046FFF750FB49
:101F900094F854203F2191408160E56484F83550E5
:101FA00084F83450002070BD012070BD2DE9F0414F
:101FB000056D0446286894F85420082101FA02F2BD
:101FC00010424FF004074FF0000617D02068026857
:101FD000520713D5026822F00402026094F85400FC
:101FE0008140A960E06C40F00100E06484F8357045
:101FF00084F83460A16C09B120468847286894F8B9
:102000005430524A02FA03F1084218D0206841695C
:10201000090614D5416921F08001416194F854000A
:1020200002FA00F1A960E06C40F00200E06484F87C
:10203000357084F83460A16C09B12046884728685F
:10204000424A94F85430D21C02FA03F1084218D0E4
:1020500020680168890714D5016821F00201016038
:1020600094F8540002FA00F1A960E06C40F004001A
:10207000E06484F8357084F83460A16C09B12046BE
:102080008847286894F85430102202FA03F1084275
:102090001AD0206803681B0716D503685F034FF04A
:1020A000310327D5A96020680168090302D484F8A8
:1020B000353005E00068000302D5412084F8350082
:1020C000216C09B120468847286894F854302022B2
:1020D00002FA03F1084236D020680368DB0632D5E5
:1020E00003685B031CD5A9602068016809030DD44F
:1020F000616C0FE00168C90503D4016821F0080193
:10210000016094F854008240AA60D0E700680003A0
:1021100019D5E16B002916D02046BDE8F0410847EB
:102120000168C90503D4016821F01001016094F829
:1021300054008240AA60E06CE064112084F835000D
:1021400084F83460E5E7BDE8F0810000010080001C
:1021500070B504001AD00220636A84F83500216843
:102160000A6818480240D4E901052843D4E9035617
:102170003543284365692843A5692843E569284311
:10218000256A28431043042B02D005E0012070BDCE
:10219000D4E90B231A431043086022685069616A2E
:1021A00020F007000843042901D1A16A08435061C7
:1021B0002046FFF73DFA0020E064012084F8350056
:1021C000002070BD3F8010F070B5044690F83400D8
:1021D00001281ED0012084F83400022084F8350044
:1021E0002068056825F0010505602046FFF734FAF0
:1021F0002068016841F01E0101602068416941F0DA
:10220000800141612068016841F001010160002006
:1022100070BD022070BD00002DE9F84FDFF89491E9
:10222000002209F1040A0AF1040B4FF00F080BF128
:10223000040E01260B6896403340B34271D14C68BE
:10224000022C01D0122C11D1D40800EB84073D6A76
:102250005407E40E08FA04FC25EA0C05D1F810C076
:102260000CFA04FC4CEA050CC7F820C007685400BF
:10227000032591F804C0A5400CF0030CAF430CFA01
:1022800004FC4CEA070CC0F800C04F68012F05D0D1
:10229000022F03D0112F01D0122F11D18768D1F84E
:1022A0000CC0AF430CFA04FC4CEA070CC0F808C0A1
:1022B0004768B7430E79C6F3001696403E43466022
:1022C000C668AE438D68A5403543C5604C68E400E0
:1022D0006AD5394C256845F480452560246822F08C
:1022E000030504F480440094344C2544D5F8087860
:1022F0009407260F08FA06F4A743314CA04201D1F7
:10230000002429E02F4CA04201D1012424E02E4CCE
:10231000A04201D102241FE02C4CA04202D1032490
:102320001AE041E02A4CA04201D1042414E0294CD7
:10233000A04201D105240FE0274CA04201D1062480
:102340000AE0264CA04201D1072405E0244CA0421B
:1023500001D1082400E00924B4403C43C5F80848F2
:10236000D9F800404D464E689C43F60300D51C4307
:102370002C60DAF8004055464E689C43B60300D501
:102380001C432C60DBF800405D464E689C43F6021F
:1023900000D51C432C60DEF8004075464E689C4317
:1023A000B60200D51C432C60521C102AFFF441AF2A
:1023B000BDE8F88F003C0140443802400030014045
:1023C000000002400004024000080240000C0240ED
:1023D000001002400014024000180240001C02409D
:1023E0000020024001480068000C7047002004E013
:1023F0000148006870470000C80300200B4810B572
:10240000016841F400710160016841F4806101607C
:10241000016841F480710160052000F049F80F2047
:1024200000F006F800F015F8002010BD003C024056
:1024300010B5044600F052F94FF47A71B0FBF1F098
:1024400000F039FD00222146501E00F011F8002056
:1024500010BD08B50020009008BD00F01F0201214A
:1024600091404009800000F1E020C0F80011704761
:10247000F0B40E4B1B68C3F30223C3F10704042C12
:1024800000D904241D1D072D01D2002300E0DB1E0E
:10249000012606FA04F56D1E0D409D409E40761EF5
:1024A000164045EA0601F0BC02F01CBA0CED00E053
:1024B000064A00F0070110684FF6FF03184040EA93
:1024C0000120034908431060704700000CED00E054
:1024D0000000FA052DE9F05FDFF8F8A104460F4689
:1024E000DAF80000DFF8F08100F00F02C8B27A4994
:1024F000814641F2883608F10808BA4261D20246A4
:102500008AF80020DAF8000000F00F00B8427DD110
:102510002078800707D5D8F80020A36822F0F002C1
:102520001A43C8F800202078C0072DD06068012821
:102530001AD002281BD0032819D00968890700295E
:1025400064DAD8F80010474621F003010143C8F8C7
:102550000010FFF74DFF0546606801280FD00228E4
:1025600018D003281CD027E009688903E7E7096829
:102570008901E4E7FFF73CFF401BB04258D83868B8
:10258000C0F381000128F5D188E0FFF731FF401B3F
:10259000B0424DD83868C0F381000228F5D17DE003
:1025A0003868FFF725FF401BB042F9D940E0FFF73C
:1025B0001FFF401BB0423BD8386810F00C0FF6D11B
:1025C0006CE02078800707D5D8F80020A36822F0B7
:1025D000F0021A43C8F800202078C0074CD0606889
:1025E000012828D0022829D0032827D00968890784
:1025F000002949DAD8F8002022F003020243C8F883
:102600000020FFF7F5FE0546606800E03CE0012889
:102610001DD0022829D0032838D0B346464630685A
:1026200010F00C0F28D0FFF7E3FE411B5945F6D9F7
:102630000320BDE8F09F09688903D9E7096889018B
:10264000D6E7FFF7D5FE411B594502D9F0E7B3465F
:1026500046463068C0F381000128F2D10CE0FFF754
:10266000C7FE411B594502D9E2E7B34646463068EA
:10267000C0F381000228F2D18AF80090DAF8000055
:1026800000F00F00B84209D00120D2E7444620688C
:10269000FFF7AEFE401BB042F9D9C9E720784007EA
:1026A00007D5D8F80010E26821F4E0511143C8F8CA
:1026B00000102078000708D5D8F80010226921F40E
:1026C000604141EAC201C8F800100F20FFF7B0FED8
:1026D0000020AEE7003C02400038024010B500F098
:1026E00043F808490968F02292FAA2F201F0F001D9
:1026F000B2FA82F2D140044A515CC84003490860F2
:1027000010BD000008380240859F0008B403002077
:1027100010B5FFF7E3FF074909684FF4E05292FA5A
:10272000A2F201F4E051B2FA82F2D140024A515CC5
:10273000C84010BD08380240859F000810B5FFF75B
:10274000CDFF074909684FF4604292FAA2F201F402
:102750006041B2FA82F2D140024A515CC84010BDD9
:1027600008380240859F000830B51948006810F00D
:102770000C01184812D0441004290ED008290DD19C
:10278000134A121F1168136801F03F015D0247F6FA
:10279000C07304D5B4FBF1F003E0204630BDB0FBBC
:1027A000F1F01168194093FAA3F3B3FA83F3D94017
:1027B000484311684FF4403292FAA2F201F44031DA
:1027C000B2FA82F2D140491C4900B0FBF1F030BDB1
:1027D000083802400024F4002DE9F84F0446007840
:1027E000DFF8FCA2BF4DC0074FF0000648D0DAF872
:1027F00000105046C1F38101012908D00068C0F3E0
:10280000810002280AD1281D0068400206D52868E8
:10281000800335D56068002873D031E0DFF8C492BA
:1028200009F1020989F80060FFF7E2FD074641F26D
:10283000883804E0FFF7DCFDC11B41457AD82868E1
:102840008003F7D4207989F80000606860B1FFF751
:10285000CFFD074604E0FFF7CBFDC11B4145EDD896
:1028600028688003F7D50BE0FFF7C2FD074604E0B8
:10287000FFF7BEFDC11B4145E0D828688003F7D4AF
:102880002078DFF86492800744D5DAF800105046CB
:1028900011F00C0F4FF0F80809D00068C0F3810068
:1028A00002280BD18E48001F0068400206D4286819
:1028B000800714D5E068012823D110E0E068D0B18A
:1028C0000120C9F80000FFF793FD074604E0FFF779
:1028D0008FFDC01B6428B1D828688007F7D5286809
:1028E00098FAA8F22169B2FA82F220F0F800914039
:1028F000084328600EE0C9F80060FFF779FD07463D
:1029000005E0EAE0FFF774FDC01B642812D82868D0
:102910008007F7D42078000725D5DFF8C4817348F5
:10292000616908F16C0881B101210160FFF760FD68
:10293000074605E07EE0FFF75BFDC01B642879D801
:10294000D8F800008007F6D50DE00660FFF750FDCF
:10295000074604E0FFF74CFDC01B64286AD8D8F88E
:1029600000008007F6D42078400753D55C48383003
:10297000016841F0805101600068DFF8748100F067
:1029800080500090D8F8001041F48071C8F8001011
:10299000FFF72EFD074604E0FFF72AFDC01B642861
:1029A00048D8D8F80000C005F6D5DFF834B10BF1EF
:1029B000680B8BF80060FFF71BFD074641F2883873
:1029C00004E0FFF715FDC11B41457ED8DBF8000090
:1029D0008007F6D4207A8BF80000A06868B1FFF772
:1029E00007FD074604E0FFF703FDC11B41456CD816
:1029F000DBF800008007F6D50CE0FFF7F9FC07468E
:102A000004E0FFF7F5FCC11B41455ED8DBF8000090
:102A10008007F6D4A069E8B3DAF80010C1F38101A9
:102A200002295AD0022806D0C9F86060FFF7E0FCFE
:102A300004464DE049E04F46C9F86060FFF7D8FC16
:102A4000064604E0FFF7D4FC801B64283DD82868C4
:102A50008001F7D4D4E90701084347F6C07191FA21
:102A6000A1F1626AB1FA81F18A40A16A4FF0FF33A5
:102A700003EB51014FF4403393FAA3F3B3FA83F31A
:102A800099400A4310434FF0706292FAA2F2B2FAF0
:102A900082F200E01FE0E16A914008431049091FFB
:102AA000086001203866FFF7A3FC044604E0FFF746
:102AB0009FFC001B642808D828688001F7D50AE02D
:102AC000FFF796FC001B642802D90320BDE8F88FAD
:102AD00028688001F4D40020F8E70120F6E7000020
:102AE000083802400038024000004742800E47424A
:102AF0000070004070B5040004D094F85100002527
:102B000010B106E0012070BD84F85050204600F05E
:102B100033F8022084F851002068016821F0400158
:102B20000160D4E901010843D4E9031211430843C9
:102B300061690843218B01F400710843E16908438E
:102B4000216A0843A16A084321680860A06904213A
:102B500001EA1040616A0843216848602168E06A20
:102B600008612068C16921F40061C16165650120C7
:102B700084F85100002070BDF0B587B004461421E0
:102B80006846FDF7BEFB18492068884229D11748DE
:102B9000016841F480410160006800F480400590C4
:102BA00012481038016841F00201016000680224F7
:102BB00000F0020005904FF4204001258DE831001F
:102BC00005260B4FCDE9034669463846FFF724FB3F
:102BD00060038DE83100CDE9034669463846FFF7CA
:102BE0001BFB07B0F0BD0000003800404038024039
:102BF000000402402DE9F843044690F85100DDF846
:102C00002080012801D022287ED169B162B15BB158
:102C100094F85000012877D0012784F8507094F878
:102C20005100012803D005E00120BDE8F8833220DF
:102C300084F8510000266665A263A387E3872163B9
:102C4000A386E386A664E664A06A4FF40055A84212
:102C500009D12068016821F40051016020680168F1
:102C600041F40051016020680168490603D40168FD
:102C700041F040010160E0684FF48271B0F5006FEF
:102C8000606807D0002867D088426ED1E08E0128A6
:102C900062D06AE020B188420CD1E08E012809D1CF
:102CA000206B21680088C860206B801C2063E08E48
:102CB000401EE086E08E80B9A06AA84244D1206818
:102CC000016841F4805101603EE02068C068A16B5A
:102CD0000880A06B801CA0639EE043460022022176
:102CE000204602F0A5FC002874D1206B21680088E2
:102CF000C860206B801C2063E08E401E0004000C26
:102D0000E08609D1A06A00E0C7E0A84204D12068AB
:102D1000016841F4805101604346002201212046B0
:102D200002F086FC00286FD12068C068A16B088083
:102D3000A06B801CA063E08F401EE087E08E00281F
:102D4000CBD1606800286AD1434600220121204689
:102D500002F06EFCF0BBB8E7206B411C21632168D8
:102D60000078C860E08E401EE086E08E98B9A06AC8
:102D7000A84204D12068016841F4805101604346B3
:102D800000220121204602F053FC18BB2068C068D5
:102D9000A16B087040E0434600220221204602F069
:102DA00047FCB8B9206B411C216321680078C860DA
:102DB000E08E401E0004000CE08607D1A06AA84205
:102DC00004D12068016841F480510160002243462B
:102DD000012100E018E0204602F02AFCA0B920689A
:102DE000C168A06B421CA2630170E08F401EE087A7
:102DF000E08E0028CFD1606888B9434600220121C7
:102E0000204602F015FC08B103200EE72068C168D7
:102E1000A06B421CA2630170E08F401EE087A06A95
:102E2000A84210D1434600220121204602F000FCB6
:102E300018B1606D40F002000FE02068C068ADF886
:102E40000000BDF80000434601228021204602F028
:102E5000EFFB20B1606D40F020006065D4E784F89E
:102E6000517020688168A26AC1F30011AA4210D192
:102E700079B1616D41F002016165016821F4005191
:102E800001602068016841F40051016084F85060DD
:102E9000CAE684F850600020C7E60220C5E64FF07D
:102EA000E0210428086903D020F00400086170477D
:102EB00040F00400FAE710B5401EB0F1807F01D366
:102EC000012010BD4FF0E02460610F21601701F078
:102ED00009FD0020A06107202061002010BD70477F
:102EE00070477047704770B50446006801694FF03D
:102EF0000005C943890715D4C168C943890711D49E
:102F0000E91E016101202076206880698007204643
:102F100002D0FFF7E7FF04E000F098F8204600F049
:102F200043F9257620680169C943490717D4C16868
:102F3000C943490713D46FF00401016102202076D0
:102F40002068806910F4407F204602D0FFF7CAFF56
:102F500004E000F07BF8204600F026F92576206892
:102F60000169C943090716D4C168C943090712D4C6
:102F70006FF008010161042020762068C069800795
:102F8000204602D0FFF7AEFF04E000F05FF82046D5
:102F900000F00AF9257620680169C943C90617D4EB
:102FA000C168C943C90613D46FF01001016108203C
:102FB00020762068C06910F4407F204602D0FFF7D9
:102FC00091FF04E000F042F8204600F0EDF825768D
:102FD00020680169C943C90708D1C168C943C90745
:102FE00004D1891E0161204600F0C0F92068016902
:102FF000C943090609D4C168C943090605D46FF05D
:10300000800101612046FFF76AFF20680169C9431A
:10301000490609D4C168C943490605D46FF0400187
:103020000161204600F0A3F920680169C9438906BF
:103030000BD4C168C943890607D46FF02001016130
:103040002046BDE87040FFF74BBF70BD704770B5BC
:10305000044690F838000D4601280DD0012684F86A
:103060003860022084F8390042B1042A18D0082AB6
:103070002AD00C2A4DD139E0022070BD206802F020
:103080002FFF2068816941F0080181612068816912
:1030900021F004018161206881692A69114311E0EE
:1030A000206802F049FF2068816941F40061816174
:1030B0002068816921F480618161206881692A69C1
:1030C00041EA0221816124E0206802F067FF206864
:1030D000C16941F00801C1612068C16921F00401A2
:1030E000C1612068C1692A69114311E0206802F0BA
:1030F00085FF2068C16941F40061C1612068C16930
:1031000021F48061C1612068C1692A6941EA022114
:10311000C16184F83960002084F8380070BD10B5B2
:10312000040003D094F8390010B107E0012010BD6D
:10313000002084F83800204600F00CF8022084F8C3
:103140003900211D206802F039FE012084F8390081
:10315000002010BD124800B5016887B041F00101A0
:103160000160006800F0010005900D481438016806
:1031700041F0100101600068032100F0100005908B
:103180004FF4D4400090022001900120CDE90201CB
:10319000049069460348FFF73FF807B000BD000000
:1031A000443802400010024002680021D163082127
:1031B00000F094B810B504460068012202F05EFEEB
:1031C00008482168814202D00748814203D1486CF7
:1031D00040F4004048642068016841F0010101604A
:1031E000002010BD000001400004014070B50446FD
:1031F00090F8390016460D46022805D094F839009B
:10320000012805D10EB903B170BD022084F8390040
:103210002E482F4935B1042D13D0082D37D00C2D51
:103220001ED143E0226AD063206A8164226831465D
:103230003432206AFEF7C8FF2068C16841F400718B
:103240000DE0626AD063606A816422683146383278
:10325000606AFEF7B9FF2068C16841F48061C1600F
:1032600001222946206802F009FE1A492068884296
:1032700002D01949884203D1416C41F400414164B4
:103280002068016841F001010160002070BDA26A60
:10329000D063A06A8164226831463C32A06AFEF79E
:1032A00093FF2068C16841F40061D8E7E26AD06307
:1032B000E06A8164226831464032E06AFEF784FFAA
:1032C0002068C16841F48051C9E70000935E00089E
:1032D000D15E0008000001400004014010B5026802
:1032E000044631B1042908D0082932D00C2908D16C
:1032F00033E0D06820F4007002E0D06820F48060F1
:10330000D0600022206802F0B9FD164841F2111287
:1033100021689310814202D01348814209D1086A82
:10332000104206D1086A184203D1486C20F40040CC
:1033300048642068016A114206D1016A194203D12A
:10334000016821F001010160012084F839000020AA
:1033500010BDD06820F40060D2E7D06820F480501F
:10336000CEE70000000001400004014070477047B4
:1033700010B504460068416921F080014161206870
:10338000416921F040014161206B08B1FEF7BAFDAF
:10339000606B08B1FEF7B6FD012084F8390000200B
:1033A00010BD704738B5016804460868CA68C0F3A4
:1033B000000002F4807238B132B1086848680090A9
:1033C000E06B40F00100E06308684A69C0F3400028
:1033D00002F0010238B132B1086848680090E06B31
:1033E00040F00400E06308684A69C0F3800002F01E
:1033F000010238B132B1086848680090E06B40F0D3
:103400000200E06308684A69C0F3C00002F00102EC
:1034100038B132B1086848680090E06B40F00800AD
:10342000E0630868C968C0F3401001F0200118B1DA
:1034300011B1204602F035FE20680168C068C1F372
:10344000C01100F0800019B110B1204602F036FF23
:1034500021680868CA68C0F3801002F040020125A4
:1034600068B162B1CA68204622F04002CA6094F88E
:10347000391032290CD080F8395000F087F8E06B11
:10348000002804D084F839502046FFF78AFF38BD61
:10349000222180F83910F0E770B5040004D094F8C8
:1034A0003900002510B106E0012070BD84F83850C5
:1034B000204600F020F8022084F839002068C16816
:1034C00021F40051C160204602F03EFE20680169EF
:1034D00021F4904101612068416921F02A01416194
:1034E0002068C16841F40051C160E563012084F89F
:1034F0003900002070BD704770470000F7B50446E2
:1035000090F83900012801D0222837D1019981B3E0
:103510007AB394F83800012830D0012084F83800BC
:103520002162A284E2840025E56394F83900222810
:1035300022D0122084F83900236B1148D863236B02
:1035400010481864236B1048986420681346266B53
:10355000021D3046FEF738FE21686FF0400008601B
:103560002068416941F08001416184F838500020B1
:10357000FEBDFFE70120FBE73220DBE70220F7E793
:103580006B600008996000084D6000087047704744
:10359000FEE7000070B50D4C0025C4F898520C48A9
:1035A000016821F440410160016841F480410160FB
:1035B000C4F89C52012004F52674FEF79BF8012004
:1035C0002060FEF797F8256070BD00000080404243
:1035D000000402400E4810B5016886B041F00201B7
:1035E00001600068012400F002000590C020CDE9D0
:1035F00000040220CDE9024069460648FEF70CFEB1
:103600000548C0F89842C0F89C4206B010BD0000C2
:1036100030380240000402400080404270B50D4C3A
:103620000026C4F898620C48016821F4404101600A
:10363000016841F4804101600125C4F89C5228468C
:1036400004F52674FEF756F825600120FEF752F8BF
:10365000266070BD008040420004024070B50D46F7
:10366000044600F0ABF8204600F04EF9284600F082
:103670004BF900F0A3F844F0010000F045F90120F7
:1036800000F032F8044600F0B9F8204670BD2DE98C
:10369000F0411D4616460F46044600F08FF82046BE
:1036A00000F032F920B100F0A9F80120BDE8F08166
:1036B000384600F029F900F081F844F0010000F0EC
:1036C00023F90024771E09E0BC4201D1012000E06B
:1036D000002000F009F82855641CE4B2B442F3D38A
:1036E00000F08CF80020E1E770B5044600F00AF81D
:1036F000054614B1FFF792FF01E0FFF74BFF2846A4
:1037000070BD00002DE9F04112480024016821F449
:1037100040410160016801600F4E254627464FF089
:103720000108C6F898720120FDF7E4FFC6F89882F8
:10373000D6F81C0200284FEA440000D0401CC4B256
:103740000020FDF7D7FF6D1CEDB2082DE9D3204610
:10375000BDE8F08100040240008040422DE9F041C4
:1037600005461448016821F440410160016841F4B4
:1037700080410160104E0027C6F898723C464FF019
:103780000108E809C6F89C026806050E0120FDF74D
:10379000B1FFC6F898820120FDF7ACFFC6F8987219
:1037A0000120FDF7A7FF641CE4B2082CE9D3BDE8B3
:1037B000F0810000000402400080404270B50D48D6
:1037C000016821F440410160016841F480410160D9
:1037D000094C0120C4F89C02C4F8980204F5267430
:1037E000FDF788FF002565600120FDF783FF256058
:1037F00070BD000000040240008040420D4810B53A
:10380000016821F440410160016841F48041016098
:10381000094C0020C4F89802C4F89C02012004F569
:103820002674FDF767FF012020606060BDE810404E
:10383000FDF760BF000402400080404270B51248AE
:103840000024016821F440410160016801600F4DCE
:103850000126C5F89C622046FDF74CFFC5F898622A
:103860000120FDF747FF07E0641CE4B2FA2C03D9FE
:10387000FFF7C4FF012070BDD5F81C020028F3D16A
:10388000C5F8980270BD000000040240008040426C
:1038900070B515460E460446FFF790FF204600F02F
:1038A00033F810B1FFF7AAFF10E0304600F02CF813
:1038B00018B1FFF7A3FF08A006E0284600F024F89F
:1038C00030B1FFF79BFF0AA002F096FE012070BD09
:1038D000FFF794FF002070BD494943207772697457
:1038E0006520726567206661696C0D0A0000000042
:1038F0004949432077726974652064617461206668
:1039000061696C0D0A00000010B5FFF727FFBDE8E4
:103910001040FFF793BF00000FB540222DED040BC0
:1039200043492DED048BC9B0F0EE619AF0EE408A68
:10393000B0EE608AB0EE419A10A8FCF7C9FC3C4991
:103940004022403120A8FCF7C3FC39494022803195
:1039500030A8FCF7BDFCB6EE001AB7EE003A69EEEF
:10396000811A8DED003A04226B4628EEE10A28EE1A
:10397000A12A69EE212A8DED010A28EE610A69EE7D
:10398000610A11468DED020A29EE610A40A88DED0B
:10399000030A8DED042A28EE610A8DED053ACDED7E
:1039A000062A8DED070A28EE210A8DED080ACDEDD5
:1039B000090A8DED0A3A8DED0B2ACDED0C2A8DED1D
:1039C0000D0A28EEE10A8DED0E0A8DED0F3A04F096
:1039D000FDFB042210AB114642A804F0F7FB0422C1
:1039E00020AB114644A804F0F1FB042230AB114691
:1039F00046A804F0EBFB42A940A804F0BDFD44AA90
:103A000053A940A804F010FD46AA42A944A804F016
:103A10000BFD5AAA56A946A804F09CFB58AA51A926
:103A200040A804F001FD49B0BDEC048B08B000BD16
:103A3000589E00080FB4F8EE000A00B5CBB0B0EE07
:103A4000000A002852D001287DD070A002F0D4FDD9
:103A50006B460422032143A804F0B8FB1AAB0322EF
:103A6000042126A804F0B2FB0CAB0422032118A801
:103A700004F0ACFB032231AB114647A804F0A6FBCF
:103A800003223AAB114649A804F0A0FB032228AB5D
:103A9000114645A804F09AFB18AA4FA943A804F0C0
:103AA000C3FC26A943A804F067FD45AA26A918A8C7
:103AB00004F0BAFC47AA51A945A804F04BFB49A958
:103AC00047A804F087FB0CAB0322042118A804F0DC
:103AD0007DFB18AA26A94FA804F0A6FC53AA49A961
:103AE00018A804F0A1FC4BB05DF814FB92ED021A8B
:103AF00021EE201A8DED001A92ED031A21EE001A24
:103B00008DED011A92ED001A21EE201A8DED021AA8
:103B100092ED011A21EE001A8DED031A92ED011AB1
:103B200021EE001A8DED041A92ED001A21EE001A12
:103B30008DED051A92ED031A21EE001A8DED061A8D
:103B400092ED021A00E018E021EE001A8DED071A3E
:103B500092ED001A21EE001A8DED081A92ED011A6D
:103B600021EE201A8DED091A92ED021A61EE200A5B
:103B7000CDED0A0AD2ED030A43E092ED001A21EEE0
:103B8000001A8DED001A92ED011A21EE001A8DED4A
:103B9000011A92ED021A21EE201A8DED021A92ED11
:103BA000031A21EE201A8DED031A92ED031A21EE6D
:103BB000201A8DED041A92ED021A21EE001A8DEDF5
:103BC000051A92ED011A21EE001A8DED061A92EDFA
:103BD000001A61EE200ACDED070AD2ED020A60EE6E
:103BE000800ACDED080AD2ED030A60EE800ACDED21
:103BF000090AD2ED000A60EE800ACDED0A0AD2ED84
:103C0000010A20EE800A8DED0B0A21E74B6D332C63
:103C1000206E65697468657220616363206F72202D
:103C20006D616720646174612E0D0A000FB440223B
:103C30002DED040B30B505462DED048BD9B0B0EE5B
:103C4000409AF0EE608AB0EE418AD7490CA8689C91
:103C5000FCF73EFB8DED1C9ACDED1D8A8DED1E8A85
:103C60001CAB012203214AA804F0B0FA3FAB0122A9
:103C700003214CA804F0AAFA56AB0122032144A860
:103C800004F0A4FA52AB0122042142A804F09EFAE7
:103C900004220CAB11464EA804F098FA6B4604229D
:103CA000032150A804F092FA04221FAB114646A843
:103CB00004F08CFA04222FAB114648A804F086FACF
:103CC00029EE090A08EEA80A08EE080A03F060FEC9
:103CD00010EE100AB549B0EE408A884201DD01209D
:103CE00000E00020FCF7B1FC41EC100B02F054FFA7
:103CF0009FEDAF1B51EC100B53EC112BFCF7D2FCDA
:103D000004D0F7EE000A80EE880A01E09FEDAA0ACF
:103D1000DDED1C0AB8EE001A60EE800ACDED1C0A3B
:103D2000DDED1D0A60EE800ACDED1D0ADDED1E0AF7
:103D300020EE800A8DED1E0AB0EE000AADB1012D15
:103D40007ED09EA002F058FC44AA4CA94AA804F0D8
:103D5000D7FB42AA44A96BA804F066FB9FED9E0A1C
:103D6000002D6ED0012D6DD003E1D4ED010A94ED4C
:103D7000002AD4ED022A60EE801AD4ED030A22EE66
:103D8000002A61EEA01A42EE621ACDED3F1AD4ED80
:103D9000001A94ED012A61EE801A61EE821A94ED08
:103DA000022A22EE002A42EE201ACDED401AD4ED6E
:103DB000000A60EEA01AD4ED010A40EEE01AD4ED3C
:103DC000020A40EEE01AD4ED030A40EEA01ACDED4F
:103DD000411AD4ED020A60EE810ACDED000AD4ED5D
:103DE000030A60EE800ACDED010AD4ED000A60EE10
:103DF000810ACDED020AD4ED010A60EE800ACDED14
:103E0000030AD4ED010A60EE800ACDED040AD4ED78
:103E1000000A60EE800ACDED050AD4ED030A60EEDB
:103E2000800ACDED060AD4ED020A60EE800ACDEDDF
:103E3000070AD4ED000A60EE800ACDED080A02E020
:103E400010E08CE08FE0D4ED010A60EE810ACDED48
:103E5000090AD4ED020A60EE810ACDED0A0AD4ED1A
:103E6000030A77E0D4ED000A60EEA01AD4ED010A4F
:103E700040EEA01AD4ED020A40EEE01AD4ED030A97
:103E800040EEE01ACDED3F1AD4ED011A94ED022A6E
:103E900061EE801A61EE821A94ED002A22EE002A69
:103EA00042EE601ACDED401AD4ED010AD4ED031AAA
:103EB00094ED022A60EE800A60EEA10AD4ED001AA9
:103EC00061EE801A41EE820ACDED410AD4ED000A7E
:103ED00060EE800ACDED000AD4ED010A60EE800AA2
:103EE000CDED010AD4ED020A60EE810ACDED020AA1
:103EF000D4ED030A60EE810ACDED030AD4ED030A86
:103F000060EE810ACDED040AD4ED020A60EE800A6B
:103F1000CDED050AD4ED010A60EE800ACDED060A6A
:103F2000D4ED000A60EE810ACDED070AD4ED020A55
:103F300060EE800ACDED080AD4ED030A60EE800A37
:103F4000CDED090AD4ED000A60EE800ACDED0A0A33
:103F5000D4ED010A20EE800A8DED0B0AF4E64398B9
:103F600080ED030A05E0439880ED010A439880ED57
:103F7000020A6DAA42A965A804F0ECF846AA50A965
:103F80006BA804F051FA48AA46A94EA804F0B8FA62
:103F90006FAA69A948A804F047FA59B0BDEC048B90
:103FA00030BC5DF824FB0000189F000877CC2B3252
:103FB0000000000000000000CDCC1C414B6D3435EA
:103FC0002C206E65697468657220616363206F726E
:103FD000206D61672E0D0A00000000000FB42DED6A
:103FE000020B10B5884C2DED028B8AB06088B0EEC4
:103FF000408A88B104F17001B0F57A7F64D2DFEDB8
:10400000830A401CC1ED000AC1ED050AC1ED0A0A90
:10401000C1ED0F0A608061E07B4B042270331146D2
:10402000A3F16C0004F0D2F8774B0322B0331146B1
:10403000A3F1A40004F0CAF8734B0322D433114651
:10404000A3F1C00004F0C2F86F4B0122F833042141
:10405000A3F1DC0004F0BAF86D4B01220421A3F1B6
:10406000E40004F0B3F86A4B012210330421A3F1F9
:10407000EC0004F0ABF8664B042220331146A3F1A8
:10408000F40004F0A3F8624B042260331146A3F558
:10409000967004F09BF85E4B0422A0331146A3F502
:1040A000B27004F093F858485A4B032204214C3064
:1040B00004F08CF8574B5448303303220421543019
:1040C00004F084F80120A5E7DFED530AC1ED000AF2
:1040D000C1ED050AC1ED0A0AC1ED0F0AD4E90D01CF
:1040E000CDE90401D4E90B01CDE90201D4E90101D4
:1040F000CDE90001D4E90901D4E911230DF14C0CFB
:10410000F0EE481A9CEC030AFFF706FCD4E9130111
:10411000CDE90301D4E90301CDE90101A06B0090D1
:10412000D4E909120020636BFFF784FCD4E90F0186
:10413000CDE90701D4E90701CDE90501D4E913016F
:10414000CDE90301D4E90D01CDE90101A06A009098
:104150000DF1400CD4E90B1200209CEC030A636AB9
:10416000FFF764FDD4E91501CDE90301D4E90501A8
:10417000CDE90101A06B0090D4E909120120636B25
:10418000FFF758FCD4E91101CDE90701D4E9093062
:10419000CDE90530D4E91512CDE90312D4E90F12A7
:1041A0008DE807000DF1580CD4E9071201209CECB2
:1041B000030AFFF73BFD1448243000F0E3FB1248EC
:1041C000144A2430843A4168383091ED000A80ED79
:1041D000010A91ED010A80ED020A91ED020A80EDDB
:1041E000030A91ED030A80ED040A606A00F0A6FE5E
:1041F0000AB0084904487039BDEC028B5C3010BC31
:104200005DF81CEB00F0FEBE340000206F12833A14
:104210003C0100200006002077CC2B320FB57C48F3
:104220002DED040B2DED068BC3B00DF1500CF0EE0F
:10423000619AF0E80212CDE923120FC88CE80F0052
:10424000B0EE41AAB0EE609AB0EE408A23AB0222F3
:10425000012104A803F0BAFF022210AB114618A8EE
:1042600003F0B4FF02AB0122022127A803F0AEFF46
:104270003BAB0122022106A803F0A8FF3DAB0122BF
:1042800002211AA803F0A2FF022233AB114621A893
:1042900003F09CFF02222BAB114608A803F096FF07
:1042A00002222FAB11460AA803F090FF022237AB7F
:1042B00011460CA803F08AFF25AB022201216846B3
:1042C00003F084FF3FAB012202211CA803F07EFF14
:1042D000012220AB11460EA803F078FF41AB01226A
:1042E00002211EA803F072FF022214AB114629A876
:1042F00003F06CFFF7EE008ACDED108A8DED118A88
:104300009FED440A06AA8DED120AB6EE000ACDED25
:10431000138A28EE000A52A918A820EE080A8DED8B
:10432000020A8DED038A04F07FF89DED020A1AAAB5
:1043300027A920EE090A06A88DED020A9DED030AC1
:1043400020EE090A8DED030A03F004FF21A918A845
:1043500004F012F908AA4FA918A804F065F80AAAEF
:1043600021A908A804F060F80CAA4DA90AA803F036
:10437000F1FE6A460CA904A804F056F81CA904A88A
:1043800004F0FAF80EAA1CA9684604F04DF89DED59
:10439000200A25AB012230EE290A02216846C8EE28
:1043A000800ACDED200A03F011FF6A461CA90CA873
:1043B00004F03AF81EAA0EA9684604F035F80EAAD1
:1043C0001AA904A804F030F89DED200A06AA0EA947
:1043D0003AEE400A1EA88DED200A04F025F852AAF4
:1043E00006A91AA803F0B6FE08AA04A91EA804F09C
:1043F0001BF80AAA08A929A804F082F84FAA0CA958
:104400000AA804F011F843B0BDEC068B08B000BD5B
:10441000589F00080000000090ED001AB4EEC01A8A
:10442000F1EE10FA02D280ED000A7047B4EEE01A05
:10443000F1EE10FAF9DDC0ED000A7047F0EE402A07
:1044400031EEC10A70EEE21AC0EE210AB0EE410A66
:1044500000EEE20A00EE820A7047000010B58022EA
:104460006B21D020FFF714FA6420FDF727F9002212
:104470006C21D020FFF70CFA012000F07FF8022019
:1044800000F076F84FF4FA74204600F096F8002217
:104490003821D020FFF7FCF900226A21D020FFF755
:1044A000F7F900222321D020FFF7F2F982223721E9
:1044B000D020FFF7EDF97521D020FFF7CFF80146A6
:1044C000712801D012A014E001226B21D020FFF747
:1044D000DFF900226C21D020FFF7DAF9204600F046
:1044E0006CF800211820FFF7B9F80146482804D0DD
:1044F00010A002F081F8012010BD11220A2118201D
:10450000FFF7C6F914A002F077F8002010BD0000F4
:104510004D50553932353020496E697420666169D5
:104520006C656420312C20726573203D2030782525
:10453000580D0A004D50553932353020496E697496
:10454000206661696C656420322C20726573203DA1
:1045500020307825580D0A004D505539323530201D
:10456000496E697420737563636573732E0D0A0059
:10457000C006020E1C21D020FFF78AB9C006020E29
:104580001B21D020FFF784B9BC2801D3012210E001
:10459000622801D302220CE02A2801D3032208E07A
:1045A000142801D3042204E00A2801D3052200E0E4
:1045B00006221A21D020FFF76BB910B504464FF43C
:1045C0007A70844201D9044602E0042C00D204240B
:1045D000B0FBF4F0401EC2B21921D020FFF758F909
:1045E0006008BDE81040FFF7CFBF00009FED0C0A48
:1045F000002913D0002207E000EB8203521CD3ED08
:10460000000AD2B230EE800A8A42F5D300EE901A48
:10461000B8EE601AC0EE010AB0EE600A7047000002
:1046200000000000FEE7000030EEC02A10B51F4C6D
:1046300032EE012A32EE212ABCEEC22A12EE100A14
:1046400030EE202A81B2218032EE412A32EE212A38
:10465000BCEEC22A12EE100A30EE602AB1EE400A19
:10466000608030EE600A32EE012A30EE410A32EE0E
:10467000212A30EE210ABCEEC22A12EE100ABCEE4C
:10468000C00AA08010EE100AE080002001F00CFAB1
:104690006188012001F008FAA188022001F004FAE3
:1046A000E188BDE81040032001F0FEB9D6020020E9
:1046B000704700001CB50FA00522D0E90010CDE91D
:1046C00000106946302000F0D9F805226946102014
:1046D00000F08AF8002069460A5CA52A03D1401C34
:1046E000C0B20528F8D3052801D001201CBD002048
:1046F0001CBD0000A5A5A5A5A500000030B51A4861
:1047000087B00024016841F0040101600068174D82
:1047100000F0040005900520009069462846FDF74A
:104720007BFD0221CDE9001469462846FDF774FDA2
:1047300000F034FF082000F061FF0D48C0F880420F
:104740000121C0F8881205E00AA001F055FFC82039
:1047500004F0A0FDFFF7AEFF0028F5D109A001F09D
:104760004BFF07B030BD0000303802400008024067
:1047700000004142436865636B204E5246202E2E56
:104780002E0D0A0046696E64204E52462E0D0A0018
:1047900010B5134C0020C4F88002052211492A20CC
:1047A00004F5207400F06AF80121212000F084F85B
:1047B0000121222000F080F82821252000F07CF83B
:1047C0002021312000F078F80F21262000F074F825
:1047D0000F21202000F070F80120206010BD0000A3
:1047E00000004142809F00082DE9F0410C4F0E4629
:1047F00000211546C7F8881200F0ECFE8046002420
:1048000005E0FF2000F0E6FE3055641CE4B2AC4247
:10481000F7D30120C7F888024046BDE8F0810000C8
:104820000000414210B5074C0021C4F8881204F57D
:10483000227400F0CFFEFF2000F0CCFE01212160A9
:1048400010BD00000000414270B505460720FFF78B
:10485000E9FF04460146272000F02EF860060AD53D
:10486000202229466120FFF7BFFFFF21E22000F050
:1048700023F8002070BD012070BD00002DE9F0413B
:104880000C4F0D4600211646C7F8881200F0A2FE14
:104890008046002405E015F8010B00F09BFE641C27
:1048A000E4B2B442F7D30120C7F888024046BDE81D
:1048B000F08100000000414270B50D46084C0146F1
:1048C0000020C4F88802084604F5227400F082FE35
:1048D0000646284600F07EFE01202060304670BD6E
:1048E000000041420907090E002806DA00F00F0017
:1048F00000F1E02080F8141D704700F1E02080F8FE
:104900000014704790ED000AD0ED010A20EE000A75
:1049100000EEA00AD0ED020A00EEA00A03F038B8BB
:1049200010B590ED010AD0ED020A044620EE000A0F
:1049300000EEA00AD0ED030A00EEA00AD0ED040AB2
:1049400000EEA00A03F024F8B7EE001AC1EE000A48
:1049500094ED010A20EE200A84ED010A94ED020A8A
:1049600020EE200A84ED020A94ED030A20EE200ACC
:1049700084ED030A94ED040A20EE200A84ED040A73
:1049800010BD000010B504462DED048B406890ED7D
:10499000000AD0ED010A20EE000A00EEA00AD0EDD8
:1049A000020A00EEA00AD0ED030A00EEA00A02F00F
:1049B000EFFF10EE100A1E49F0EE408AB7EE008AB3
:1049C000884201DD012000E00020FBF73EFE41ECC3
:1049D000100B02F0E1F89FED171B51EC100B53EC9C
:1049E000112BFBF75FFE03D0B0EE489A89EE288AC0
:1049F000606890ED000A20EE080A80ED000A606809
:104A000090ED010A20EE080A80ED010A606890ED41
:104A1000020A20EE080A80ED020A606890ED030A9F
:104A200020EE080A80ED030ABDEC048B10BD0000E7
:104A300077CC2B32000000000000000090ED010A4E
:104A4000D0ED020A30EE600AD0ED000A20EE200A16
:104A500080ED030AD0ED040A0C30B1EE600AFFF7D6
:104A6000DBBC000010B50446DFED330A9FED330ACE
:104A70003830FFF7D1FC94ED0A0AD4ED0B0A04F1AB
:104A80001C0030EE600A84ED070AD4ED030AB1EE93
:104A9000600AFFF7C1FC94ED090AD4ED070A94ED12
:104AA0000E1A04F1240000EE810A84ED090AD4ED07
:104AB000050AB1EE600AFFF7AFFC94ED0B0AD4EDE6
:104AC0000D0A94ED0E1A04F1200030EE600ADFEDBD
:104AD0001C0A60EE200A80EE810AD4ED080A9FEDE0
:104AE000191A00EE810A84ED080AD4ED060AB1EE27
:104AF000600AFFF791FC94ED070AD4ED010A94EDEA
:104B0000091A04F1300000EE810AD4ED020A94ED96
:104B1000081A00EEC10AD4ED000A20EE200A84ED46
:104B20000C0AD4ED040AB1EE600AFFF775FC94EDAF
:104B30000B0A84ED0D0A10BD0AD7233C6F12833A8D
:104B4000CDCCCC3D6666663F004870477C050020B2
:104B50000048704718050020004870476405002091
:104B60000048704760060020004870477806002023
:104B7000004870478406002000487047D602002095
:104B8000004870476C06002000487047A0070020CE
:104B900000487047AC07002000242DED048B9CB02A
:104BA000274600940194A046A14602940D940E94C9
:104BB00026462546DFED5E8A4FF47A700F9404F0A6
:104BC00069FB04F0A1FF9FED5B9A4FF00A0B4FF0D9
:104BD000640A1A9001211AA804F082FB03A8FCF7CA
:104BE00081FF182203A910A8FBF772FB10AB00EE9F
:104BF000107A93E8070000EE900A8DE8070030EE87
:104C0000C00A00EE901A68468DED000A00EE108A88
:104C100030EEC00A00EE902A8DED010A00EE109AE7
:104C200030EEC00A8DED020A01F04AFC39EE411A5D
:104C30000DAAB1EE400AF1EE600A3F490DA882ECE0
:104C4000030AFBF767FFB6FBFBF10BFB116040BBF0
:104C500003A8FCF741FF282203A910A8FBF738FBA3
:104C60009DED190A642D12D210EE100AB0F17E5F8C
:104C700018DD10EE100A3149884213DA00EE904A2E
:104C80006D1CEDB230EE800A10EE104A48E009D1FA
:104C900000EE104A9FED2A1A6525C0EE010A10EEBB
:104CA000904A3DE000EE904A234F234830EEC01A70
:104CB0000C379FED258A87ED021AD0ED020A00F12C
:104CC0002C0120309FED1F2AF7EE001AB0EE480AA3
:104CD00000F042F807F10C00D7ED020A90ED020A4D
:104CE0001A4870EEC00A90ED011A9FED190A00EE05
:104CF000881A20EE800ADFED170A80ED011A01EE16
:104D0000200ACDED038ACDED048A03A88DED050AB6
:104D100001F004FC10EE107A10EE908A11EE109A59
:104D2000761CF0B2B0FBFAF20AFB120652E7000062
:104D300000000000CDCC1C416006002000409C45D6
:104D40000000C842ACC527370AD7233C9402002094
:104D5000CDCC4C3D0AD7A33B70B52B4C06462DED70
:104D6000048B82B00D462078B0EE418AF0EE608A66
:104D7000B0EE409A28BB2548C4ED021ADFED241A94
:104D800080ED002AC0ED011AC0ED021A80ED032A61
:104D900003460222114604F11C0003F017FA04F145
:104DA0002C0302221146A3F1180003F00FFA04F1BC
:104DB0000C030122022103F1180003F007FA01207D
:104DC0002070D4E90901CDE90001D4E90701D4E953
:104DD0000523D4ED021AB0EE481AF0EE680AB0EEE0
:104DE000490AFFF71BFA08482430416891ED000A90
:104DF00086ED000A406890ED010A85ED000A02B0D8
:104E0000BDEC048B70BD00009402002090060020D1
:104E1000000000002DE9F0410C460A4601462148F9
:104E2000FEF76CFB42F2107014FB00F04FF46121AE
:104E3000B0FBF1F0401CC0B204F02CFA1A4E1B4D2E
:104E40001A4B543E1748371F603DB83B4030164A56
:104E5000164C0068904201D9316808E0A04201D99F
:104E6000396804E0A84201D9596800E0196811F0D6
:104E7000006FEFD04FF00061904202D90A484C38E1
:104E800003E0A04203D908485038016004E0A8427A
:104E900001D9D96000E09960BDE8F0410148FEF712
:104EA00067BA0000FC08002058640240B860024065
:104EB0002DED028B82B0FFF74BFEFFF74DFEFFF7A3
:104EC00043FEFFF751FEFFF75BFEFFF75DFEFFF7C6
:104ED0005FFE0446FFF74CFEFFF746FEFFF750FE6D
:104EE000FFF73EFEFFF748FE04F00EFE9FED128A2C
:104EF00000900221684604F0F3F994ED020A20EED6
:104F0000080ABDEEC00A10EE100A94ED010A02B2C2
:104F100020EE080ABDEEC00A10EE100A94ED000A59
:104F200001B220EE080ABDEEC00A10EE100A00B26F
:104F300000F0CDFBDDE700000000C84270B515466B
:104F40002DED028BB0EE008A91ED000A91ED012A61
:104F500091ED021A60EE000AD1ED031A0C4642EE02
:104F6000420A41EE410A21EE211A00EE021A41EEF8
:104F7000A10A21EE080A01F011FCDFED218A20EEE2
:104F8000280A85ED010AD4ED001A94ED021AD4ED39
:104F9000010A94ED030A21EE812A61EEA11A00EEC6
:104FA000C02A40EEA01A22EE082A41EE011A40EE75
:104FB000001A82EE210A01F05BFB20EE280A85ED43
:104FC000020A94ED000A94ED012AD4ED021A60EE73
:104FD000000A94ED031A42EE020A41EEE10A62EE83
:104FE000211A40EE011A41EE410A21EE880A01F031
:104FF000D5FB20EE280A85ED030ABDEC028B70BDBF
:10500000E12E654290ED030AB7EE001A60EE000A49
:1050100090ED040AF0EE411A40EE000AB0EE000AEC
:1050200040EEC01AC1ED001AD0ED020AD0ED031A0D
:1050300090ED042A60EEA10AD0ED011A41EEC20AF9
:1050400060EE800AC1ED010AD0ED020AD0ED041A2B
:1050500090ED032A60EEA10AD0ED011A41EE820A1A
:1050600060EE800AC1ED020AD0ED020AD0ED031A0B
:1050700090ED042A60EEA10AD0ED011A41EE820AF9
:1050800060EE800AC1ED030AD0ED020A60EEA01ABC
:10509000D0ED040A40EEA01AF0EE410A41EEC00A3B
:1050A000C1ED040AD0ED030AD0ED041A90ED022AF6
:1050B00060EEA10AD0ED011A41EEC20A60EE800A4C
:1050C000C1ED050AD0ED020AD0ED041A90ED032AD5
:1050D00060EEA10AD0ED011A41EEC20A60EE800A2C
:1050E000C1ED060AD0ED030AD0ED041A90ED022AB4
:1050F00060EEA10AD0ED011A41EE820A60EE800A4C
:10510000C1ED070AD0ED020A60EEA01AD0ED030A45
:1051100040EEA01A01EEC01A81ED081A7047000097
:1051200030B52DED048B8DB0B0EE618AF0EE409A73
:10513000F0EE608AB0EE419A6846FCF7D3FC182284
:10514000694606A8FBF7C4F8DDE9091514480B9C6D
:1051500000EE101AC0ED0A9A80ED0B0A80ED0E8A5F
:10516000FFF780FC0E4800EE105A3C30C0ED0A8A72
:1051700080ED0B0A80ED0E8AFFF774FC084800EE04
:10518000104A783080ED0A9A80ED0B0A80ED0E8A85
:105190000DB0BDEC048BBDE83040FFF763BC0000F0
:1051A00008080020828852BA0A80C28852BA4A800F
:1051B000028952BA8A80428952BACA80027B02F0BE
:1051C00001020A72027BC2F340024A72027BC2F3FE
:1051D00080028A72007BC0F3C000C87270472DE95C
:1051E000F0410D46002102780B460C46AA2A1DD13B
:1051F0004278662A1AD1C6780022371D07E010F8D7
:1052000002C0521C6144C9B20B44DBB2D2B2974215
:10521000F5D8021DB25C8A4208D1411D715C9942E9
:1052200004D1014610222846FBF752F86C73BDE802
:10523000F08100002DE9F04705462DED048B0E4668
:105240001C46174680B240F2F471DFED908A40F6BA
:1052500008099FED8F8A88421FD20A3080B28046AB
:1052600000EE108A60F30F05FBEE091AB8EE402A33
:10527000B0EE481AF0EE480AB0EE680AFFF7DEF822
:1052800084ED000A00EE108AF8EE081AB0EE481A13
:10529000B8EE402AF0EE480A22E0484527D90A38FD
:1052A00080B2804600EE108A60F30F05F3EE091A13
:1052B000B8EE402AB0EE481A9FED769AB0EE680A32
:1052C000F0EE490AFFF7BAF884ED000A00EE108A02
:1052D000F0EE081AB0EE481AB8EE402AF0EE490A8D
:1052E000B0EE680AFFF7AAF884ED050A03E084ED42
:1052F000008A84ED058A280C40F603019FED669A2A
:10530000DFED668A88421ED20A3085B200EE105A5E
:10531000FBEE091AB0EE481AB8EE402AF0EE480A41
:10532000B0EE490AFFF78AF8B1EE400A84ED010AAF
:1053300000EE105AF0EE081AB0EE481AB8EE402A05
:10534000F0EE480A21E040F61701884226D90A38D3
:1053500085B200EE105AF3EE091AB0EE481AB8EE14
:10536000402AF0EE680AB0EE490AFFF767F8B1EE9E
:10537000400A84ED010A00EE105AF8EE081AB0EE69
:10538000481AB8EE402AF0EE680AB0EE490AFFF774
:1053900055F8B1EE400A84ED040A03E084ED018A79
:1053A00084ED048AB5B200EE105ADFED3D1AB0EE7E
:1053B000481AB8EE402AF0EE680AB7EE000AFFF786
:1053C0003DF884ED030A40F612009FED360A85424F
:1053D0000ED20A35A8B200EE900A60F30F06F7EE7F
:1053E000001AB8EE602AB0EE481AF7EE000A11E093
:1053F00040F62600854212D90A3DA8B200EE900A76
:1054000060F30F06FFEE001AB8EE602AB0EE481AFD
:10541000F0EE680AFFF712F884ED060A01E084ED69
:10542000068A300C9FED200A48450CD20A3080B223
:1054300000EE900ADFED1D1AB8EE602AF0EE480A81
:10544000B0EE601A0FE040F61C01884210D90A380D
:1054500080B200EE900ADFED161AB0EE481AB8EEF0
:10546000602AF0EE680AFEF7E9FF84ED020A01E027
:1054700084ED028A2777380A6077380CA077380ED7
:10548000E077BDEC048BBDE8F087000000C0FF446E
:105490000000000000D07F4500D0004500C07F45DF
:1054A0000000484300C0014500200145000070C2D3
:1054B000000070428AB0FFF721F9FFF769F9164D35
:1054C000164C6846FFF7C0F908BB9DF80200F128AA
:1054D0001DD112496846FFF782FE10490F4810316E
:1054E000FFF760FE10340C4B94E807005B1C103C87
:1054F00000F0F6F9103494E80700103C130E012B6D
:1055000000D000232B70054B1C33FFF793FE0320C4
:1055100003F0C0FED5E70000D00200209007002075
:1055200000B5024600F0E9FA9FED090A82ED0A0A89
:1055300082ED0E0A82ED080A82ED070A82ED090A61
:1055400082ED0B0A82ED0D0A82ED0C0A00BD00000F
:10555000000000000EB510480168009141680191FB
:105560008068029000F0B2FB4FF4FA7404216846A0
:1055700000F06EF9204603F08DFE042101A800F032
:1055800067F9204603F086FE042102A800F060F9C6
:10559000204603F07FFEE9E7709F00080C480B49A6
:1055A0004FF4007201604FF482714160002181600C
:1055B000C1600161C0E905120822C0E9072141620A
:1055C00081620A21C162FDF795BA000000380040EF
:1055D000F00B002001B582B000208DF804004FF4DC
:1055E0007A700090012301AA02A90348FDF702FB8B
:1055F0009DF804000EBD0000F00B00200B4A10B512
:1056000011680B6823F040030B6011680B684FF6BC
:10561000C77423400B6011680B6803430B6010686C
:10562000016841F04001016010BD0000F00B002056
:105630002DE9F0471D4690460F460446FCF7D8FE7C
:1056400006465FEA08004FF000084FF4005A4FF09A
:10565000010926D034E0681C23D025B1FCF7C8FE30
:10566000801BA8421DD92068416821F0E0014160FB
:105670002068016821F040010160A06A504509D10D
:105680002068016821F4005101602068016841F43C
:105690000051016084F8519084F850800320BDE8E7
:1056A000F0872068806837EA0000D4D10DE0681CDC
:1056B00006D0002DD7D0FCF79BFE801BA842D2D885
:1056C0002068806837EA0000F1D00020E7E72DE984
:1056D000F04188B00F46804600241646254620211A
:1056E0006846FAF70EFEAA208DF80000FF208DF81C
:1056F000010003208DF802008DF804804FEA182085
:105700008DF805008DF80670380A8DF807008DF8C1
:105710000860300A8DF80900012107238DF80A106E
:105720008DF803300B2100206A461B1D06E0165C35
:10573000401C3444E4B22544EDB2C0B28342F6D8F2
:105740005454491C10465554491CFFF763FB08B0DC
:10575000BDE8F08110B50A21002000F0A5F94FF452
:10576000FA74204603F096FD0A21012000F09CF90E
:10577000204603F08FFD0A21022000F095F9204613
:1057800003F088FD0A21032000F08EF92046BDE8D1
:10579000104003F07FBD00002DE9FE4300242646A3
:1057A00037460546B846DFF8A090FCF7D7FA6846BA
:1057B0008DEC030AFFF7A6F810EE100A484539DD14
:1057C0006846FFF79FF810EE100A2049884231DA48
:1057D00000EE106ADDED000A9DED011ADDED021A02
:1057E00030EE200A00EE907A641CE4B270EE810A7A
:1057F00001EE108A10EE106A10EE907A31EE211A46
:1058000001EE904A11EE108AF8EE611A80EE212A1C
:1058100000EE104AB8EE400AC0EE801A00EE104AC0
:1058200085ED002AB8EE400AC1EE000AC5ED011A66
:10583000C5ED020AC82C02D30120BDE8FE83022078
:1058400003F028FDB1E70000BD3786350000204198
:10585000F0B4224D002601222E8033E0521C92B279
:10586000002344789C40240601D5472400E02224EC
:1058700025F81240521C5B1CDBB292B2082BF0D30D
:10588000002304789C40240601D5472400E022240C
:1058900025F81240521C5B1CDBB292B2082BF0D3ED
:1058A000002384789C40240601D5472400E022246C
:1058B00025F81240521C5B1CDBB292B2082BF0D3CD
:1058C000491E89B225F812600029C7D1F0BC034AED
:1058D0006223082102F1D800FDF788BCEC09002002
:1058E0002DE9F0411D462DED048B8CB29FED418BCF
:1058F0004FEA104886B20F0C3046FAF7A6FE41EC8C
:10590000100B01F049F953EC182B51EC100BFAF77E
:10591000C9FE30D24046FAF798FE41EC100B01F078
:105920003BF953EC182B51EC100BFAF7BBFE22D2CB
:10593000601EFAF779FE41EC100B01F02DF9B0EE84
:10594000489AF0EE689A53EC192B51EC100BFAF7C9
:10595000A9FE10D2A7F6FC70FAF766FE41EC100B18
:1059600001F01AF953EC192B51EC100BFAF79AFECF
:1059700001D2012039E0A6F6FD70FAF755FE41ECA0
:10598000100B01F009F953EC182B51EC100BFAF73E
:1059900089FE2BD24046FAF758FE41EC100B01F07D
:1059A000FBF853EC182B51EC100BFAF77BFE1DD2D1
:1059B000601EFAF739FE41EC100B01F0EDF853ECE4
:1059C000182B51EC100BFAF76DFE0FD23846FAF790
:1059D0003CFE41EC100B01F0DFF853EC182B51ECBE
:1059E000100BFAF75FFE01D200202870BDEC048B8B
:1059F000BDE8F081000000000000594080EE201A50
:105A000010B504462DED068BC0ED000ADFED230A2C
:105A100080EE810A01F0DAFF9FED21AAB0EE408A04
:105A2000B0EE4A0A01F010F8B0EE009AF7EE009AD4
:105A300020EE090AF0EE698A68EE080A40EE088A4C
:105A400048EE088A80EEA80A84ED030A60EE090A8F
:105A5000C4ED040A84ED050AB0EE690A18EE080ADE
:105A600020EE090AC0EE280AB0EE4A0AC4ED010A87
:105A700000F0EAFF20EE090A40EE489A48EE089A44
:105A800089EEA80A84ED020A9FED060A84ED070A52
:105A900084ED060ABDEC068B10BD0000DB0F49400B
:105AA000DB0F493F00000000C82900D9C821084A7F
:105AB00038B1012807D0022807D0032800D1D163CC
:105AC00070479163704751637047116470470000DD
:105AD0000000014000B500210846FFF7E5FF002166
